{
  "contractName": "Dapp",
  "abi": [
    {
      "inputs": [],
      "payable": false,
      "stateMutability": "nonpayable",
      "type": "constructor"
    },
    {
      "constant": true,
      "inputs": [],
      "name": "_totalSupply",
      "outputs": [
        {
          "internalType": "uint256",
          "name": "",
          "type": "uint256"
        }
      ],
      "payable": false,
      "stateMutability": "view",
      "type": "function"
    },
    {
      "constant": true,
      "inputs": [],
      "name": "totalSupply",
      "outputs": [
        {
          "internalType": "uint256",
          "name": "",
          "type": "uint256"
        }
      ],
      "payable": false,
      "stateMutability": "view",
      "type": "function"
    }
  ],
  "bytecode": "0x608060405234801561001057600080fd5b50620186a060008190555060b3806100296000396000f3fe6080604052348015600f57600080fd5b506004361060325760003560e01c806318160ddd1460375780633eaaf86b146053575b600080fd5b603d606f565b6040518082815260200191505060405180910390f35b60596078565b6040518082815260200191505060405180910390f35b60008054905090565b6000548156fea265627a7a72315820a7ea900d8047c510445d1d6a921f2b0f9a0b8263e1b9ddcd6463b7957fd283ed64736f6c634300050c0032",
  "source": "pragma solidity ^0.5.1;\r\n\r\ncontract Dapp{\r\n    uint256 public _totalSupply;\r\n\r\n    constructor() public {\r\n        _totalSupply = 100000;\r\n    }\r\n\r\n    function totalSupply() public view returns(uint256){\r\n        return _totalSupply;\r\n    }\r\n}",
  "sourcePath": "E:/BLOCKCHAIN_STUFF/TRUFFLE_SUITE_CODE/TOKEN_SALE/contracts/DappToken.sol",
  "compiler": {
    "name": "solc",
    "version": "0.5.12+commit.7709ece9.Emscripten.clang"
  },
  "schemaVersion": "3.0.20",
  "updatedAt": "2020-01-02T17:43:40.255Z",
  "devdoc": {
    "methods": {}
  },
  "userdoc": {
    "methods": {}
  }
}